{
  "contractName": "GaslessForwarder",
  "abi": [
    {
      "inputs": [
        {
          "internalType": "address[]",
          "name": "initialTokens",
          "type": "address[]"
        },
        {
          "internalType": "address[]",
          "name": "initialTargets",
          "type": "address[]"
        }
      ],
      "stateMutability": "nonpayable",
      "type": "constructor"
    },
    {
      "anonymous": false,
      "inputs": [
        {
          "indexed": false,
          "internalType": "uint256",
          "name": "oldMultiplier",
          "type": "uint256"
        },
        {
          "indexed": false,
          "internalType": "uint256",
          "name": "newMultiplier",
          "type": "uint256"
        }
      ],
      "name": "FeeMultiplierUpdated",
      "type": "event"
    },
    {
      "anonymous": false,
      "inputs": [
        {
          "indexed": false,
          "internalType": "uint256",
          "name": "oldLimit",
          "type": "uint256"
        },
        {
          "indexed": false,
          "internalType": "uint256",
          "name": "newLimit",
          "type": "uint256"
        }
      ],
      "name": "MaxGasLimitUpdated",
      "type": "event"
    },
    {
      "anonymous": false,
      "inputs": [
        {
          "indexed": true,
          "internalType": "address",
          "name": "previousOwner",
          "type": "address"
        },
        {
          "indexed": true,
          "internalType": "address",
          "name": "newOwner",
          "type": "address"
        }
      ],
      "name": "OwnershipTransferred",
      "type": "event"
    },
    {
      "anonymous": false,
      "inputs": [
        {
          "indexed": false,
          "internalType": "address",
          "name": "account",
          "type": "address"
        }
      ],
      "name": "Paused",
      "type": "event"
    },
    {
      "anonymous": false,
      "inputs": [
        {
          "indexed": true,
          "internalType": "address",
          "name": "target",
          "type": "address"
        }
      ],
      "name": "TargetAdded",
      "type": "event"
    },
    {
      "anonymous": false,
      "inputs": [
        {
          "indexed": true,
          "internalType": "address",
          "name": "target",
          "type": "address"
        }
      ],
      "name": "TargetRemoved",
      "type": "event"
    },
    {
      "anonymous": false,
      "inputs": [
        {
          "indexed": true,
          "internalType": "address",
          "name": "token",
          "type": "address"
        }
      ],
      "name": "TokenAdded",
      "type": "event"
    },
    {
      "anonymous": false,
      "inputs": [
        {
          "indexed": true,
          "internalType": "address",
          "name": "token",
          "type": "address"
        }
      ],
      "name": "TokenRemoved",
      "type": "event"
    },
    {
      "anonymous": false,
      "inputs": [
        {
          "indexed": true,
          "internalType": "address",
          "name": "from",
          "type": "address"
        },
        {
          "indexed": true,
          "internalType": "address",
          "name": "to",
          "type": "address"
        },
        {
          "indexed": false,
          "internalType": "uint256",
          "name": "nonce",
          "type": "uint256"
        },
        {
          "indexed": false,
          "internalType": "address",
          "name": "feeToken",
          "type": "address"
        },
        {
          "indexed": false,
          "internalType": "uint256",
          "name": "feeAmount",
          "type": "uint256"
        }
      ],
      "name": "TransactionExecuted",
      "type": "event"
    },
    {
      "anonymous": false,
      "inputs": [
        {
          "indexed": true,
          "internalType": "address",
          "name": "from",
          "type": "address"
        },
        {
          "indexed": true,
          "internalType": "address",
          "name": "to",
          "type": "address"
        },
        {
          "indexed": false,
          "internalType": "uint256",
          "name": "nonce",
          "type": "uint256"
        },
        {
          "indexed": false,
          "internalType": "string",
          "name": "reason",
          "type": "string"
        }
      ],
      "name": "TransactionFailed",
      "type": "event"
    },
    {
      "anonymous": false,
      "inputs": [
        {
          "indexed": false,
          "internalType": "address",
          "name": "account",
          "type": "address"
        }
      ],
      "name": "Unpaused",
      "type": "event"
    },
    {
      "inputs": [
        {
          "internalType": "address",
          "name": "",
          "type": "address"
        }
      ],
      "name": "allowedTargets",
      "outputs": [
        {
          "internalType": "bool",
          "name": "",
          "type": "bool"
        }
      ],
      "stateMutability": "view",
      "type": "function",
      "constant": true
    },
    {
      "inputs": [],
      "name": "feeMultiplier",
      "outputs": [
        {
          "internalType": "uint256",
          "name": "",
          "type": "uint256"
        }
      ],
      "stateMutability": "view",
      "type": "function",
      "constant": true
    },
    {
      "inputs": [],
      "name": "maxGasLimit",
      "outputs": [
        {
          "internalType": "uint256",
          "name": "",
          "type": "uint256"
        }
      ],
      "stateMutability": "view",
      "type": "function",
      "constant": true
    },
    {
      "inputs": [],
      "name": "minGasLimit",
      "outputs": [
        {
          "internalType": "uint256",
          "name": "",
          "type": "uint256"
        }
      ],
      "stateMutability": "view",
      "type": "function",
      "constant": true
    },
    {
      "inputs": [],
      "name": "owner",
      "outputs": [
        {
          "internalType": "address",
          "name": "",
          "type": "address"
        }
      ],
      "stateMutability": "view",
      "type": "function",
      "constant": true
    },
    {
      "inputs": [],
      "name": "paused",
      "outputs": [
        {
          "internalType": "bool",
          "name": "",
          "type": "bool"
        }
      ],
      "stateMutability": "view",
      "type": "function",
      "constant": true
    },
    {
      "inputs": [],
      "name": "renounceOwnership",
      "outputs": [],
      "stateMutability": "nonpayable",
      "type": "function"
    },
    {
      "inputs": [
        {
          "internalType": "address",
          "name": "",
          "type": "address"
        }
      ],
      "name": "supportedFeeTokens",
      "outputs": [
        {
          "internalType": "bool",
          "name": "",
          "type": "bool"
        }
      ],
      "stateMutability": "view",
      "type": "function",
      "constant": true
    },
    {
      "inputs": [
        {
          "internalType": "address",
          "name": "newOwner",
          "type": "address"
        }
      ],
      "name": "transferOwnership",
      "outputs": [],
      "stateMutability": "nonpayable",
      "type": "function"
    },
    {
      "inputs": [
        {
          "internalType": "address",
          "name": "token",
          "type": "address"
        }
      ],
      "name": "addSupportedToken",
      "outputs": [],
      "stateMutability": "nonpayable",
      "type": "function"
    },
    {
      "inputs": [
        {
          "internalType": "address",
          "name": "token",
          "type": "address"
        }
      ],
      "name": "removeSupportedToken",
      "outputs": [],
      "stateMutability": "nonpayable",
      "type": "function"
    },
    {
      "inputs": [
        {
          "internalType": "address",
          "name": "target",
          "type": "address"
        }
      ],
      "name": "addAllowedTarget",
      "outputs": [],
      "stateMutability": "nonpayable",
      "type": "function"
    },
    {
      "inputs": [
        {
          "internalType": "address",
          "name": "target",
          "type": "address"
        }
      ],
      "name": "removeAllowedTarget",
      "outputs": [],
      "stateMutability": "nonpayable",
      "type": "function"
    },
    {
      "inputs": [
        {
          "components": [
            {
              "internalType": "address",
              "name": "from",
              "type": "address"
            },
            {
              "internalType": "address",
              "name": "to",
              "type": "address"
            },
            {
              "internalType": "uint256",
              "name": "value",
              "type": "uint256"
            },
            {
              "internalType": "uint256",
              "name": "gas",
              "type": "uint256"
            },
            {
              "internalType": "uint256",
              "name": "nonce",
              "type": "uint256"
            },
            {
              "internalType": "bytes",
              "name": "data",
              "type": "bytes"
            },
            {
              "internalType": "uint256",
              "name": "deadline",
              "type": "uint256"
            }
          ],
          "internalType": "struct GaslessForwarder.GaslessForwarderMetaTx",
          "name": "tx",
          "type": "tuple"
        },
        {
          "internalType": "bytes",
          "name": "signature",
          "type": "bytes"
        }
      ],
      "name": "verify",
      "outputs": [
        {
          "internalType": "bool",
          "name": "",
          "type": "bool"
        }
      ],
      "stateMutability": "view",
      "type": "function",
      "constant": true
    },
    {
      "inputs": [
        {
          "components": [
            {
              "internalType": "address",
              "name": "from",
              "type": "address"
            },
            {
              "internalType": "address",
              "name": "to",
              "type": "address"
            },
            {
              "internalType": "uint256",
              "name": "value",
              "type": "uint256"
            },
            {
              "internalType": "uint256",
              "name": "gas",
              "type": "uint256"
            },
            {
              "internalType": "uint256",
              "name": "nonce",
              "type": "uint256"
            },
            {
              "internalType": "bytes",
              "name": "data",
              "type": "bytes"
            },
            {
              "internalType": "uint256",
              "name": "deadline",
              "type": "uint256"
            }
          ],
          "internalType": "struct GaslessForwarder.GaslessForwarderMetaTx",
          "name": "metaTx",
          "type": "tuple"
        },
        {
          "internalType": "bytes",
          "name": "signature",
          "type": "bytes"
        },
        {
          "internalType": "address",
          "name": "feeToken",
          "type": "address"
        },
        {
          "internalType": "uint256",
          "name": "feeAmount",
          "type": "uint256"
        }
      ],
      "name": "execute",
      "outputs": [],
      "stateMutability": "nonpayable",
      "type": "function"
    },
    {
      "inputs": [
        {
          "internalType": "uint256",
          "name": "newLimit",
          "type": "uint256"
        }
      ],
      "name": "setMaxGasLimit",
      "outputs": [],
      "stateMutability": "nonpayable",
      "type": "function"
    },
    {
      "inputs": [
        {
          "internalType": "uint256",
          "name": "newMultiplier",
          "type": "uint256"
        }
      ],
      "name": "setFeeMultiplier",
      "outputs": [],
      "stateMutability": "nonpayable",
      "type": "function"
    },
    {
      "inputs": [],
      "name": "pause",
      "outputs": [],
      "stateMutability": "nonpayable",
      "type": "function"
    },
    {
      "inputs": [],
      "name": "unpause",
      "outputs": [],
      "stateMutability": "nonpayable",
      "type": "function"
    },
    {
      "inputs": [
        {
          "internalType": "address",
          "name": "from",
          "type": "address"
        }
      ],
      "name": "getNonce",
      "outputs": [
        {
          "internalType": "uint256",
          "name": "",
          "type": "uint256"
        }
      ],
      "stateMutability": "view",
      "type": "function",
      "constant": true
    },
    {
      "inputs": [
        {
          "internalType": "uint256",
          "name": "gasAmount",
          "type": "uint256"
        }
      ],
      "name": "estimateFee",
      "outputs": [
        {
          "internalType": "uint256",
          "name": "",
          "type": "uint256"
        }
      ],
      "stateMutability": "view",
      "type": "function",
      "constant": true
    }
  ],
  "bytecode": "0x60806040526207a120600655615208600755606e6008553480156200002357600080fd5b5060405162001c2b38038062001c2b833981016040819052620000469162000439565b620000513362000309565b600180556002805460ff1916905560005b8251811015620001b15760006001600160a01b03168382815181106200008c576200008c620004a3565b60200260200101516001600160a01b031603620000f05760405162461bcd60e51b815260206004820152601860248201527f5a65726f2061646472657373206e6f7420616c6c6f776564000000000000000060448201526064015b60405180910390fd5b6001600460008584815181106200010b576200010b620004a3565b60200260200101516001600160a01b03166001600160a01b0316815260200190815260200160002060006101000a81548160ff0219169083151502179055508281815181106200015f576200015f620004a3565b60200260200101516001600160a01b03167f784c8f4dbf0ffedd6e72c76501c545a70f8b203b30a26ce542bf92ba87c248a460405160405180910390a280620001a881620004b9565b91505062000062565b5060005b8151811015620003005760006001600160a01b0316828281518110620001df57620001df620004a3565b60200260200101516001600160a01b0316036200023f5760405162461bcd60e51b815260206004820152601860248201527f5a65726f2061646472657373206e6f7420616c6c6f77656400000000000000006044820152606401620000e7565b6001600560008484815181106200025a576200025a620004a3565b60200260200101516001600160a01b03166001600160a01b0316815260200190815260200160002060006101000a81548160ff021916908315150217905550818181518110620002ae57620002ae620004a3565b60200260200101516001600160a01b03167f2124916666eafb28928bfe4bad7d911dc792fa4c41427d6b7e28112e992e5a1a60405160405180910390a280620002f781620004b9565b915050620001b5565b505050620004e1565b600080546001600160a01b038381166001600160a01b0319831681178455604051919092169283917f8be0079c531659141344cd1fd0a4f28419497f9722a3daafe3b4186f6b6457e09190a35050565b634e487b7160e01b600052604160045260246000fd5b80516001600160a01b03811681146200038757600080fd5b919050565b600082601f8301126200039e57600080fd5b815160206001600160401b0380831115620003bd57620003bd62000359565b8260051b604051601f19603f83011681018181108482111715620003e557620003e562000359565b6040529384528581018301938381019250878511156200040457600080fd5b83870191505b848210156200042e576200041e826200036f565b835291830191908301906200040a565b979650505050505050565b600080604083850312156200044d57600080fd5b82516001600160401b03808211156200046557600080fd5b62000473868387016200038c565b935060208501519150808211156200048a57600080fd5b5062000499858286016200038c565b9150509250929050565b634e487b7160e01b600052603260045260246000fd5b600060018201620004da57634e487b7160e01b600052601160045260246000fd5b5060010190565b61173a80620004f16000396000f3fe608060405234801561001057600080fd5b50600436106101375760003560e01c80635c975abb116100b85780638456cb591161007c5780638456cb59146102625780638da5cb5b1461026a578063b8fe8d5f14610285578063de5e59c6146102a8578063e5a70ef7146102cb578063f2fde38b146102d457600080fd5b80635c975abb146102205780635e45da231461022b5780636d69fcaf14610234578063715018a614610247578063763191901461024f57600080fd5b80632c5a79de116100ff5780632c5a79de146101c05780632d0335ab146101d35780633f4ba83a146101fc578063594a9e82146102045780635aeb4d771461021757600080fd5b8063019fe8851461013c578063127e8e4d146101645780631776834a14610185578063182562b31461019a5780631e6a311d146101ad575b600080fd5b61014f61014a36600461142b565b6102e7565b60405190151581526020015b60405180910390f35b61017761017236600461148f565b6104b6565b60405190815260200161015b565b61019861019336600461148f565b6104f4565b005b6101986101a83660046114a8565b610587565b6101986101bb36600461148f565b61068e565b6101986101ce3660046114a8565b61071e565b6101776101e13660046114a8565b6001600160a01b031660009081526003602052604090205490565b6101986107cc565b6101986102123660046114c3565b6107de565b61017760075481565b60025460ff1661014f565b61017760065481565b6101986102423660046114a8565b610b4d565b610198610c5b565b61019861025d3660046114a8565b610c6d565b610198610d1c565b6000546040516001600160a01b03909116815260200161015b565b61014f6102933660046114a8565b60056020526000908152604090205460ff1681565b61014f6102b63660046114a8565b60046020526000908152604090205460ff1681565b61017760085481565b6101986102e23660046114a8565b610d2c565b60008260c001514211156103385760405162461bcd60e51b8152602060048201526013602482015272151c985b9cd858dd1a5bdb88195e1c1a5c9959606a1b60448201526064015b60405180910390fd5b82516001600160a01b03166103885760405162461bcd60e51b8152602060048201526016602482015275496e76616c69642073656e646572206164647265737360501b604482015260640161032f565b60208301516001600160a01b03166103db5760405162461bcd60e51b8152602060048201526016602482015275496e76616c696420746172676574206164647265737360501b604482015260640161032f565b6000610462846000015185602001518660400151876060015188608001518960a001518a60c00151604051602001610419979695949392919061158f565b604051602081830303815290604052805190602001207f19457468657265756d205369676e6564204d6573736167653a0a3332000000006000908152601c91909152603c902090565b84519091506001600160a01b031661047a8285610da5565b6001600160a01b03161480156104ac5750608084015184516001600160a01b0316600090815260036020526040902054145b9150505b92915050565b6000488082036104c8575064012a05f2005b600854612710906104d983866115e0565b6104e391906115e0565b6104ed9190611605565b9392505050565b6104fc610dc9565b60075481116105415760405162461bcd60e51b8152602060048201526011602482015270476173206c696d697420746f6f206c6f7760781b604482015260640161032f565b600680549082905560408051828152602081018490527fbe7b61c51ba98d0a7b30b6fb3f546bb16480f4e13f7e238cd7748212533003b691015b60405180910390a15050565b61058f610dc9565b6001600160a01b0381166105e05760405162461bcd60e51b815260206004820152601860248201527716995c9bc81859191c995cdcc81b9bdd08185b1b1bddd95960421b604482015260640161032f565b6001600160a01b03811660009081526005602052604090205460ff16156106425760405162461bcd60e51b815260206004820152601660248201527515185c99d95d08185b1c9958591e48185b1b1bddd95960521b604482015260640161032f565b6001600160a01b038116600081815260056020526040808220805460ff19166001179055517f2124916666eafb28928bfe4bad7d911dc792fa4c41427d6b7e28112e992e5a1a9190a250565b610696610dc9565b60648110156106e05760405162461bcd60e51b8152602060048201526016602482015275466565206d756c7469706c69657220746f6f206c6f7760501b604482015260640161032f565b600880549082905560408051828152602081018490527fe15e4c1566edf80db8047c672432c7c3510cc1ba8d662e9d84e5b6c01cee115b910161057b565b610726610dc9565b6001600160a01b03811660009081526005602052604090205460ff166107835760405162461bcd60e51b815260206004820152601260248201527115185c99d95d081b9bdd08185b1b1bddd95960721b604482015260640161032f565b6001600160a01b038116600081815260056020526040808220805460ff19169055517fe553c8d5c5394d64d3220f3548c51ee149f9d77f3052d1e18ce62f0926a160809190a250565b6107d4610dc9565b6107dc610e23565b565b6107e6610e75565b6107ee610ece565b6001600160a01b03821660009081526004602052604090205460ff1661084a5760405162461bcd60e51b81526020600482015260116024820152702ab739bab83837b93a32b2103a37b5b2b760791b604482015260640161032f565b6020808501516001600160a01b031660009081526005909152604090205460ff166108ac5760405162461bcd60e51b815260206004820152601260248201527115185c99d95d081b9bdd08185b1b1bddd95960721b604482015260640161032f565b6007548460600151101580156108c85750600654846060015111155b6109085760405162461bcd60e51b8152602060048201526011602482015270125b9d985b1a590819d85cc81b1a5b5a5d607a1b604482015260640161032f565b61091284846102e7565b6109525760405162461bcd60e51b8152602060048201526011602482015270496e76616c6964207369676e617475726560781b604482015260640161032f565b60003a9050600061271060085483886060015161096f91906115e0565b61097991906115e0565b6109839190611605565b9050808310156109c35760405162461bcd60e51b815260206004820152600b60248201526a46656520746f6f206c6f7760a81b604482015260640161032f565b85516001600160a01b0390811660009081526003602090815260408083208054600101905590890151818a015160608b015160a08c01519351949586959316939092610a0f9190611627565b600060405180830381858888f193505050503d8060008114610a4d576040519150601f19603f3d011682016040523d82523d6000602084013e610a52565b606091505b509150915081610adc576000610a6782610f14565b905088602001516001600160a01b031689600001516001600160a01b03167fac2f532662cc1b810ca66b2316876daf9984fbd59b5fc8d19c3f1f18bf96d5aa8b6080015184604051610aba929190611643565b60405180910390a38060405162461bcd60e51b815260040161032f9190611664565b602080890151895160808b0151604080519182526001600160a01b038b81169583019590955281018990529183169216907f0ff913c15f08b1665a31a8f2cfb661aba30f7181fbb132a67e58f088c0c758189060600160405180910390a350505050610b4760018055565b50505050565b610b55610dc9565b6001600160a01b038116610ba65760405162461bcd60e51b815260206004820152601860248201527716995c9bc81859191c995cdcc81b9bdd08185b1b1bddd95960421b604482015260640161032f565b6001600160a01b03811660009081526004602052604090205460ff1615610c0f5760405162461bcd60e51b815260206004820152601760248201527f546f6b656e20616c726561647920737570706f72746564000000000000000000604482015260640161032f565b6001600160a01b038116600081815260046020526040808220805460ff19166001179055517f784c8f4dbf0ffedd6e72c76501c545a70f8b203b30a26ce542bf92ba87c248a49190a250565b610c63610dc9565b6107dc6000610f66565b610c75610dc9565b6001600160a01b03811660009081526004602052604090205460ff16610cd35760405162461bcd60e51b8152602060048201526013602482015272151bdad95b881b9bdd081cdd5c1c1bdc9d1959606a1b604482015260640161032f565b6001600160a01b038116600081815260046020526040808220805460ff19169055517f4c910b69fe65a61f7531b9c5042b2329ca7179c77290aa7e2eb3afa3c8511fd39190a250565b610d24610dc9565b6107dc610fb6565b610d34610dc9565b6001600160a01b038116610d995760405162461bcd60e51b815260206004820152602660248201527f4f776e61626c653a206e6577206f776e657220697320746865207a65726f206160448201526564647265737360d01b606482015260840161032f565b610da281610f66565b50565b6000806000610db48585610ff3565b91509150610dc181611038565b509392505050565b6000546001600160a01b031633146107dc5760405162461bcd60e51b815260206004820181905260248201527f4f776e61626c653a2063616c6c6572206973206e6f7420746865206f776e6572604482015260640161032f565b610e2b611182565b6002805460ff191690557f5db9ee0a495bf2e6ff9c91a7834c1ba4fdd244a5e8aa4e537bd38aeae4b073aa335b6040516001600160a01b03909116815260200160405180910390a1565b600260015403610ec75760405162461bcd60e51b815260206004820152601f60248201527f5265656e7472616e637947756172643a207265656e7472616e742063616c6c00604482015260640161032f565b6002600155565b60025460ff16156107dc5760405162461bcd60e51b815260206004820152601060248201526f14185d5cd8589b194e881c185d5cd95960821b604482015260640161032f565b6060604482511015610f4c57505060408051808201909152601081526f115e1958dd5d1a5bdb8819985a5b195960821b602082015290565b600482019150818060200190518101906104b09190611677565b600080546001600160a01b038381166001600160a01b0319831681178455604051919092169283917f8be0079c531659141344cd1fd0a4f28419497f9722a3daafe3b4186f6b6457e09190a35050565b610fbe610ece565b6002805460ff191660011790557f62e78cea01bee320cd4e420270b5ea74000d11b0c9f74754ebdbfc544b05a258610e583390565b60008082516041036110295760208301516040840151606085015160001a61101d878285856111cb565b94509450505050611031565b506000905060025b9250929050565b600081600481111561104c5761104c6116ee565b036110545750565b6001816004811115611068576110686116ee565b036110b55760405162461bcd60e51b815260206004820152601860248201527f45434453413a20696e76616c6964207369676e61747572650000000000000000604482015260640161032f565b60028160048111156110c9576110c96116ee565b036111165760405162461bcd60e51b815260206004820152601f60248201527f45434453413a20696e76616c6964207369676e6174757265206c656e67746800604482015260640161032f565b600381600481111561112a5761112a6116ee565b03610da25760405162461bcd60e51b815260206004820152602260248201527f45434453413a20696e76616c6964207369676e6174757265202773272076616c604482015261756560f01b606482015260840161032f565b60025460ff166107dc5760405162461bcd60e51b815260206004820152601460248201527314185d5cd8589b194e881b9bdd081c185d5cd95960621b604482015260640161032f565b6000807f7fffffffffffffffffffffffffffffff5d576e7357a4501ddfe92f46681b20a08311156112025750600090506003611286565b6040805160008082526020820180845289905260ff881692820192909252606081018690526080810185905260019060a0016020604051602081039080840390855afa158015611256573d6000803e3d6000fd5b5050604051601f1901519150506001600160a01b03811661127f57600060019250925050611286565b9150600090505b94509492505050565b634e487b7160e01b600052604160045260246000fd5b60405160e0810167ffffffffffffffff811182821017156112c8576112c861128f565b60405290565b604051601f8201601f1916810167ffffffffffffffff811182821017156112f7576112f761128f565b604052919050565b80356001600160a01b038116811461131657600080fd5b919050565b600067ffffffffffffffff8211156113355761133561128f565b50601f01601f191660200190565b600082601f83011261135457600080fd5b81356113676113628261131b565b6112ce565b81815284602083860101111561137c57600080fd5b816020850160208301376000918101602001919091529392505050565b600060e082840312156113ab57600080fd5b6113b36112a5565b90506113be826112ff565b81526113cc602083016112ff565b602082015260408201356040820152606082013560608201526080820135608082015260a082013567ffffffffffffffff81111561140957600080fd5b61141584828501611343565b60a08301525060c082013560c082015292915050565b6000806040838503121561143e57600080fd5b823567ffffffffffffffff8082111561145657600080fd5b61146286838701611399565b9350602085013591508082111561147857600080fd5b5061148585828601611343565b9150509250929050565b6000602082840312156114a157600080fd5b5035919050565b6000602082840312156114ba57600080fd5b6104ed826112ff565b600080600080608085870312156114d957600080fd5b843567ffffffffffffffff808211156114f157600080fd5b6114fd88838901611399565b9550602087013591508082111561151357600080fd5b5061152087828801611343565b93505061152f604086016112ff565b9396929550929360600135925050565b60005b8381101561155a578181015183820152602001611542565b50506000910152565b6000815180845261157b81602086016020860161153f565b601f01601f19169290920160200192915050565b600060018060a01b03808a16835280891660208401525086604083015285606083015284608083015260e060a08301526115cc60e0830185611563565b90508260c083015298975050505050505050565b80820281158282048414176104b057634e487b7160e01b600052601160045260246000fd5b60008261162257634e487b7160e01b600052601260045260246000fd5b500490565b6000825161163981846020870161153f565b9190910192915050565b82815260406020820152600061165c6040830184611563565b949350505050565b6020815260006104ed6020830184611563565b60006020828403121561168957600080fd5b815167ffffffffffffffff8111156116a057600080fd5b8201601f810184136116b157600080fd5b80516116bf6113628261131b565b8181528560208385010111156116d457600080fd5b6116e582602083016020860161153f565b95945050505050565b634e487b7160e01b600052602160045260246000fdfea2646970667358221220a0676a6485926ad8e884d7ea70002408b3b2757fdadae485db2dce804ddd812b64736f6c63430008130033",
  "immutableReferences": {},
  "source": "// SPDX-License-Identifier: MIT\npragma solidity ^0.8.19;\n\nimport \"@openzeppelin/contracts/utils/cryptography/ECDSA.sol\";\nimport \"@openzeppelin/contracts/access/Ownable.sol\";\nimport \"@openzeppelin/contracts/security/ReentrancyGuard.sol\";\nimport \"@openzeppelin/contracts/security/Pausable.sol\";\nimport \"@openzeppelin/contracts/token/ERC20/utils/SafeERC20.sol\";\n\ncontract GaslessForwarder is Ownable, ReentrancyGuard, Pausable {\n    using ECDSA for bytes32;\n    using SafeERC20 for IERC20;\n\n    mapping(address => uint256) private _nonces;\n    mapping(address => bool) public supportedFeeTokens;\n    mapping(address => bool) public allowedTargets;\n    uint256 public maxGasLimit = 500000;\n    uint256 public minGasLimit = 21000;\n    uint256 public feeMultiplier = 110; // 1.1x in basis points\n\n    struct GaslessForwarderMetaTx {\n        address from;\n        address to;\n        uint256 value;\n        uint256 gas;\n        uint256 nonce;\n        bytes data;\n        uint256 deadline;\n    }\n\n    event TokenAdded(address indexed token);\n    event TokenRemoved(address indexed token);\n    event TargetAdded(address indexed target);\n    event TargetRemoved(address indexed target);\n    event TransactionExecuted(address indexed from, address indexed to, uint256 nonce, address feeToken, uint256 feeAmount);\n    event TransactionFailed(address indexed from, address indexed to, uint256 nonce, string reason);\n    event MaxGasLimitUpdated(uint256 oldLimit, uint256 newLimit);\n    event FeeMultiplierUpdated(uint256 oldMultiplier, uint256 newMultiplier);\n\n    constructor(address[] memory initialTokens, address[] memory initialTargets) {\n        for (uint i = 0; i < initialTokens.length; i++) {\n            require(initialTokens[i] != address(0), \"Zero address not allowed\");\n            supportedFeeTokens[initialTokens[i]] = true;\n            emit TokenAdded(initialTokens[i]);\n        }\n        for (uint i = 0; i < initialTargets.length; i++) {\n            require(initialTargets[i] != address(0), \"Zero address not allowed\");\n            allowedTargets[initialTargets[i]] = true;\n            emit TargetAdded(initialTargets[i]);\n        }\n    }\n\n    function addSupportedToken(address token) external onlyOwner {\n        require(token != address(0), \"Zero address not allowed\");\n        require(!supportedFeeTokens[token], \"Token already supported\");\n        supportedFeeTokens[token] = true;\n        emit TokenAdded(token);\n    }\n\n    function removeSupportedToken(address token) external onlyOwner {\n        require(supportedFeeTokens[token], \"Token not supported\");\n        supportedFeeTokens[token] = false;\n        emit TokenRemoved(token);\n    }\n\n    function addAllowedTarget(address target) external onlyOwner {\n        require(target != address(0), \"Zero address not allowed\");\n        require(!allowedTargets[target], \"Target already allowed\");\n        allowedTargets[target] = true;\n        emit TargetAdded(target);\n    }\n\n    function removeAllowedTarget(address target) external onlyOwner {\n        require(allowedTargets[target], \"Target not allowed\");\n        allowedTargets[target] = false;\n        emit TargetRemoved(target);\n    }\n\n    function verify(GaslessForwarderMetaTx memory tx, bytes memory signature) public view returns (bool) {\n        require(block.timestamp <= tx.deadline, \"Transaction expired\");\n        require(tx.from != address(0), \"Invalid sender address\");\n        require(tx.to != address(0), \"Invalid target address\");\n        \n        bytes32 hash = keccak256(abi.encode(\n            tx.from,\n            tx.to,\n            tx.value,\n            tx.gas,\n            tx.nonce,\n            tx.data,\n            tx.deadline\n        )).toEthSignedMessageHash();\n        \n        return hash.recover(signature) == tx.from && _nonces[tx.from] == tx.nonce;\n    }\n\n    function execute(\n        GaslessForwarderMetaTx memory metaTx,\n        bytes memory signature,\n        address feeToken,\n        uint256 feeAmount\n    ) external nonReentrant whenNotPaused {\n        require(supportedFeeTokens[feeToken], \"Unsupported token\");\n        require(allowedTargets[metaTx.to], \"Target not allowed\");\n        require(metaTx.gas >= minGasLimit && metaTx.gas <= maxGasLimit, \"Invalid gas limit\");\n        require(verify(metaTx, signature), \"Invalid signature\");\n        \n        // Calculate minimum fee (1.1x of gas cost)\n        uint256 gasPrice = tx.gasprice;\n        uint256 minFee = (metaTx.gas * gasPrice * feeMultiplier) / 10000;\n        require(feeAmount >= minFee, \"Fee too low\");\n\n        unchecked {\n            _nonces[metaTx.from]++;\n        }\n\n        // Execute the transaction\n        (bool success, bytes memory returndata) = metaTx.to.call{value: metaTx.value, gas: metaTx.gas}(metaTx.data);\n        if (!success) {\n            string memory reason = _getRevertReason(returndata);\n            emit TransactionFailed(metaTx.from, metaTx.to, metaTx.nonce, reason);\n            revert(reason);\n        }\n\n        emit TransactionExecuted(metaTx.from, metaTx.to, metaTx.nonce, feeToken, feeAmount);\n    }\n\n    function _getRevertReason(bytes memory returndata) private pure returns (string memory) {\n        if (returndata.length < 68) return \"Execution failed\";\n        assembly {\n            returndata := add(returndata, 0x04)\n        }\n        return abi.decode(returndata, (string));\n    }\n\n    function setMaxGasLimit(uint256 newLimit) external onlyOwner {\n        require(newLimit > minGasLimit, \"Gas limit too low\");\n        uint256 oldLimit = maxGasLimit;\n        maxGasLimit = newLimit;\n        emit MaxGasLimitUpdated(oldLimit, newLimit);\n    }\n\n    function setFeeMultiplier(uint256 newMultiplier) external onlyOwner {\n        require(newMultiplier >= 100, \"Fee multiplier too low\");\n        uint256 oldMultiplier = feeMultiplier;\n        feeMultiplier = newMultiplier;\n        emit FeeMultiplierUpdated(oldMultiplier, newMultiplier);\n    }\n\n    function pause() external onlyOwner {\n        _pause();\n    }\n\n    function unpause() external onlyOwner {\n        _unpause();\n    }\n\n    function getNonce(address from) external view returns (uint256) {\n        return _nonces[from];\n    }\n\n    function estimateFee(uint256 gasAmount) external view returns (uint256) {\n        uint256 gasPrice = block.basefee;\n        if (gasPrice == 0) {\n            gasPrice = 5 gwei; // Fallback to 5 gwei if basefee is not available\n        }\n        return (gasAmount * gasPrice * feeMultiplier) / 10000;\n    }\n}",
  "sourcePath": "/home/ved-mohan/Desktop/bnb-gasless/contracts/GaslessForwarder.sol",
  "compiler": {
    "name": "solc",
    "version": "0.8.19+commit.7dd6d404.Emscripten.clang"
  },
  "schemaVersion": "3.4.16",
  "updatedAt": "2025-05-16T16:14:11.856Z",
  "networkType": "ethereum",
  "devdoc": {
    "events": {
      "Paused(address)": {
        "details": "Emitted when the pause is triggered by `account`."
      },
      "Unpaused(address)": {
        "details": "Emitted when the pause is lifted by `account`."
      }
    },
    "kind": "dev",
    "methods": {
      "owner()": {
        "details": "Returns the address of the current owner."
      },
      "paused()": {
        "details": "Returns true if the contract is paused, and false otherwise."
      },
      "renounceOwnership()": {
        "details": "Leaves the contract without owner. It will not be possible to call `onlyOwner` functions. Can only be called by the current owner. NOTE: Renouncing ownership will leave the contract without an owner, thereby disabling any functionality that is only available to the owner."
      },
      "transferOwnership(address)": {
        "details": "Transfers ownership of the contract to a new account (`newOwner`). Can only be called by the current owner."
      }
    },
    "version": 1
  },
  "userdoc": {
    "kind": "user",
    "methods": {},
    "version": 1
  }
}