{
  "contractName": "GaslessForwarder",
  "abi": [
    {
      "inputs": [],
      "stateMutability": "nonpayable",
      "type": "constructor"
    },
    {
      "anonymous": false,
      "inputs": [
        {
          "indexed": false,
          "internalType": "uint256",
          "name": "oldMultiplier",
          "type": "uint256"
        },
        {
          "indexed": false,
          "internalType": "uint256",
          "name": "newMultiplier",
          "type": "uint256"
        }
      ],
      "name": "FeeMultiplierUpdated",
      "type": "event"
    },
    {
      "anonymous": false,
      "inputs": [
        {
          "indexed": false,
          "internalType": "uint256",
          "name": "oldLimit",
          "type": "uint256"
        },
        {
          "indexed": false,
          "internalType": "uint256",
          "name": "newLimit",
          "type": "uint256"
        }
      ],
      "name": "MaxGasLimitUpdated",
      "type": "event"
    },
    {
      "anonymous": false,
      "inputs": [
        {
          "indexed": true,
          "internalType": "address",
          "name": "previousOwner",
          "type": "address"
        },
        {
          "indexed": true,
          "internalType": "address",
          "name": "newOwner",
          "type": "address"
        }
      ],
      "name": "OwnershipTransferred",
      "type": "event"
    },
    {
      "anonymous": false,
      "inputs": [
        {
          "indexed": false,
          "internalType": "address",
          "name": "account",
          "type": "address"
        }
      ],
      "name": "Paused",
      "type": "event"
    },
    {
      "anonymous": false,
      "inputs": [
        {
          "indexed": true,
          "internalType": "address",
          "name": "token",
          "type": "address"
        }
      ],
      "name": "TokenAdded",
      "type": "event"
    },
    {
      "anonymous": false,
      "inputs": [
        {
          "indexed": true,
          "internalType": "address",
          "name": "token",
          "type": "address"
        }
      ],
      "name": "TokenRemoved",
      "type": "event"
    },
    {
      "anonymous": false,
      "inputs": [
        {
          "indexed": true,
          "internalType": "address",
          "name": "from",
          "type": "address"
        },
        {
          "indexed": true,
          "internalType": "address",
          "name": "to",
          "type": "address"
        },
        {
          "indexed": false,
          "internalType": "uint256",
          "name": "nonce",
          "type": "uint256"
        },
        {
          "indexed": false,
          "internalType": "address",
          "name": "feeToken",
          "type": "address"
        },
        {
          "indexed": false,
          "internalType": "uint256",
          "name": "feeAmount",
          "type": "uint256"
        }
      ],
      "name": "TransactionExecuted",
      "type": "event"
    },
    {
      "anonymous": false,
      "inputs": [
        {
          "indexed": false,
          "internalType": "address",
          "name": "account",
          "type": "address"
        }
      ],
      "name": "Unpaused",
      "type": "event"
    },
    {
      "inputs": [],
      "name": "feeMultiplier",
      "outputs": [
        {
          "internalType": "uint256",
          "name": "",
          "type": "uint256"
        }
      ],
      "stateMutability": "view",
      "type": "function"
    },
    {
      "inputs": [],
      "name": "maxGasLimit",
      "outputs": [
        {
          "internalType": "uint256",
          "name": "",
          "type": "uint256"
        }
      ],
      "stateMutability": "view",
      "type": "function"
    },
    {
      "inputs": [],
      "name": "owner",
      "outputs": [
        {
          "internalType": "address",
          "name": "",
          "type": "address"
        }
      ],
      "stateMutability": "view",
      "type": "function"
    },
    {
      "inputs": [],
      "name": "paused",
      "outputs": [
        {
          "internalType": "bool",
          "name": "",
          "type": "bool"
        }
      ],
      "stateMutability": "view",
      "type": "function"
    },
    {
      "inputs": [],
      "name": "renounceOwnership",
      "outputs": [],
      "stateMutability": "nonpayable",
      "type": "function"
    },
    {
      "inputs": [
        {
          "internalType": "address",
          "name": "",
          "type": "address"
        }
      ],
      "name": "supportedFeeTokens",
      "outputs": [
        {
          "internalType": "bool",
          "name": "",
          "type": "bool"
        }
      ],
      "stateMutability": "view",
      "type": "function"
    },
    {
      "inputs": [
        {
          "internalType": "address",
          "name": "newOwner",
          "type": "address"
        }
      ],
      "name": "transferOwnership",
      "outputs": [],
      "stateMutability": "nonpayable",
      "type": "function"
    },
    {
      "inputs": [
        {
          "internalType": "address",
          "name": "token",
          "type": "address"
        }
      ],
      "name": "addSupportedToken",
      "outputs": [],
      "stateMutability": "nonpayable",
      "type": "function"
    },
    {
      "inputs": [
        {
          "internalType": "address",
          "name": "token",
          "type": "address"
        }
      ],
      "name": "removeSupportedToken",
      "outputs": [],
      "stateMutability": "nonpayable",
      "type": "function"
    },
    {
      "inputs": [
        {
          "components": [
            {
              "internalType": "address",
              "name": "from",
              "type": "address"
            },
            {
              "internalType": "address",
              "name": "to",
              "type": "address"
            },
            {
              "internalType": "uint256",
              "name": "value",
              "type": "uint256"
            },
            {
              "internalType": "uint256",
              "name": "gas",
              "type": "uint256"
            },
            {
              "internalType": "uint256",
              "name": "nonce",
              "type": "uint256"
            },
            {
              "internalType": "bytes",
              "name": "data",
              "type": "bytes"
            },
            {
              "internalType": "uint256",
              "name": "deadline",
              "type": "uint256"
            }
          ],
          "internalType": "struct GaslessForwarder.MetaTx",
          "name": "tx",
          "type": "tuple"
        },
        {
          "internalType": "bytes",
          "name": "signature",
          "type": "bytes"
        }
      ],
      "name": "verify",
      "outputs": [
        {
          "internalType": "bool",
          "name": "",
          "type": "bool"
        }
      ],
      "stateMutability": "view",
      "type": "function"
    },
    {
      "inputs": [
        {
          "components": [
            {
              "internalType": "address",
              "name": "from",
              "type": "address"
            },
            {
              "internalType": "address",
              "name": "to",
              "type": "address"
            },
            {
              "internalType": "uint256",
              "name": "value",
              "type": "uint256"
            },
            {
              "internalType": "uint256",
              "name": "gas",
              "type": "uint256"
            },
            {
              "internalType": "uint256",
              "name": "nonce",
              "type": "uint256"
            },
            {
              "internalType": "bytes",
              "name": "data",
              "type": "bytes"
            },
            {
              "internalType": "uint256",
              "name": "deadline",
              "type": "uint256"
            }
          ],
          "internalType": "struct GaslessForwarder.MetaTx",
          "name": "tx",
          "type": "tuple"
        },
        {
          "internalType": "bytes",
          "name": "signature",
          "type": "bytes"
        },
        {
          "internalType": "address",
          "name": "feeToken",
          "type": "address"
        },
        {
          "internalType": "uint256",
          "name": "feeAmount",
          "type": "uint256"
        }
      ],
      "name": "execute",
      "outputs": [],
      "stateMutability": "nonpayable",
      "type": "function"
    },
    {
      "inputs": [
        {
          "internalType": "uint256",
          "name": "newLimit",
          "type": "uint256"
        }
      ],
      "name": "setMaxGasLimit",
      "outputs": [],
      "stateMutability": "nonpayable",
      "type": "function"
    },
    {
      "inputs": [
        {
          "internalType": "uint256",
          "name": "newMultiplier",
          "type": "uint256"
        }
      ],
      "name": "setFeeMultiplier",
      "outputs": [],
      "stateMutability": "nonpayable",
      "type": "function"
    },
    {
      "inputs": [],
      "name": "pause",
      "outputs": [],
      "stateMutability": "nonpayable",
      "type": "function"
    },
    {
      "inputs": [],
      "name": "unpause",
      "outputs": [],
      "stateMutability": "nonpayable",
      "type": "function"
    },
    {
      "inputs": [
        {
          "internalType": "address",
          "name": "from",
          "type": "address"
        }
      ],
      "name": "getNonce",
      "outputs": [
        {
          "internalType": "uint256",
          "name": "",
          "type": "uint256"
        }
      ],
      "stateMutability": "view",
      "type": "function"
    }
  ],
  "bytecode": "0x60806040526207a120600555606e60065534801561001c57600080fd5b50610026336100ae565b60018080556002805460ff1990811690915560046020527f3cb875b40d9034ff7bb549212de5e60d01a7fb3c1999f8157ee8af557a214124805482168317905573d9bfd73fe6b7481ff056bf31239c2c4f019c05426000527f071b2f373bbff3b8517660f029f809d6ae86d538fd9cb50e4c3443365b50ffa5805490911690911790556100fe565b600080546001600160a01b038381166001600160a01b0319831681178455604051919092169283917f8be0079c531659141344cd1fd0a4f28419497f9722a3daafe3b4186f6b6457e09190a35050565b6113f68061010d6000396000f3fe608060405234801561001057600080fd5b50600436106101005760003560e01c80636d69fcaf116100975780638da5cb5b116100665780638da5cb5b146101f1578063de5e59c61461020c578063e5a70ef71461022f578063f2fde38b1461023857600080fd5b80636d69fcaf146101bb578063715018a6146101ce57806376319190146101d65780638456cb59146101e957600080fd5b80633f4ba83a116100d35780633f4ba83a1461018c578063594a9e82146101945780635c975abb146101a75780635e45da23146101b257600080fd5b8063019fe885146101055780631776834a1461012d5780631e6a311d146101425780632d0335ab14610155575b600080fd5b6101186101133660046111a8565b61024b565b60405190151581526020015b60405180910390f35b61014061013b36600461120c565b610418565b005b61014061015036600461120c565b6104b6565b61017e610163366004611225565b6001600160a01b031660009081526003602052604090205490565b604051908152602001610124565b610140610546565b6101406101a2366004611247565b610558565b60025460ff16610118565b61017e60055481565b6101406101c9366004611225565b610939565b610140610a4c565b6101406101e4366004611225565b610a5e565b610140610b0d565b6000546040516001600160a01b039091168152602001610124565b61011861021a366004611225565b60046020526000908152604090205460ff1681565b61017e60065481565b610140610246366004611225565b610b1d565b60008260c0015142111561029c5760405162461bcd60e51b8152602060048201526013602482015272151c985b9cd858dd1a5bdb88195e1c1a5c9959606a1b60448201526064015b60405180910390fd5b82516001600160a01b03166102ec5760405162461bcd60e51b8152602060048201526016602482015275496e76616c69642073656e646572206164647265737360501b6044820152606401610293565b60208301516001600160a01b031661033f5760405162461bcd60e51b8152602060048201526016602482015275496e76616c696420746172676574206164647265737360501b6044820152606401610293565b60006103c6846000015185602001518660400151876060015188608001518960a001518a60c0015160405160200161037d97969594939291906112e7565b604051602081830303815290604052805190602001207f19457468657265756d205369676e6564204d6573736167653a0a3332000000006000908152601c91909152603c902090565b84519091506001600160a01b03166103de8285610b96565b6001600160a01b03161480156104105750608084015184516001600160a01b0316600090815260036020526040902054145b949350505050565b610420610bba565b600081116104705760405162461bcd60e51b815260206004820152601a60248201527f476173206c696d6974206d75737420626520706f7369746976650000000000006044820152606401610293565b600580549082905560408051828152602081018490527fbe7b61c51ba98d0a7b30b6fb3f546bb16480f4e13f7e238cd7748212533003b691015b60405180910390a15050565b6104be610bba565b60648110156105085760405162461bcd60e51b8152602060048201526016602482015275466565206d756c7469706c69657220746f6f206c6f7760501b6044820152606401610293565b600680549082905560408051828152602081018490527fe15e4c1566edf80db8047c672432c7c3510cc1ba8d662e9d84e5b6c01cee115b91016104aa565b61054e610bba565b610556610c14565b565b610560610c66565b610568610cbf565b6001600160a01b03821660009081526004602052604090205460ff166105c45760405162461bcd60e51b81526020600482015260116024820152702ab739bab83837b93a32b2103a37b5b2b760791b6044820152606401610293565b6005548460600151111561060f5760405162461bcd60e51b815260206004820152601260248201527108ec2e640d8d2dad2e840e8dede40d0d2ced60731b6044820152606401610293565b600084602001516001600160a01b03163b1161066d5760405162461bcd60e51b815260206004820152601960248201527f546172676574206d757374206265206120636f6e7472616374000000000000006044820152606401610293565b610677848461024b565b6106b75760405162461bcd60e51b8152602060048201526011602482015270496e76616c6964207369676e617475726560781b6044820152606401610293565b8351604051636eb1769f60e11b81526001600160a01b039182166004820152306024820152829184169063dd62ed3e90604401602060405180830381865afa158015610707573d6000803e3d6000fd5b505050506040513d601f19601f8201168201806040525081019061072b9190611353565b10156107795760405162461bcd60e51b815260206004820152601c60248201527f496e73756666696369656e7420746f6b656e20616c6c6f77616e6365000000006044820152606401610293565b83516040516323b872dd60e01b81526001600160a01b03918216600482015233602482015260448101839052908316906323b872dd906064016020604051808303816000875af11580156107d1573d6000803e3d6000fd5b505050506040513d601f19601f820116820180604052508101906107f5919061136c565b5083516001600160a01b039081166000908152600360209081526040808320805460010190559087015181880151606089015160a08a015193519495929092169391929091610844919061138e565b600060405180830381858888f193505050503d8060008114610882576040519150601f19603f3d011682016040523d82523d6000602084013e610887565b606091505b50509050806108cb5760405162461bcd60e51b815260206004820152601060248201526f115e1958dd5d1a5bdb8819985a5b195960821b6044820152606401610293565b60208086015186516080880151604080519182526001600160a01b038881169583019590955281018690529183169216907f0ff913c15f08b1665a31a8f2cfb661aba30f7181fbb132a67e58f088c0c758189060600160405180910390a35061093360018055565b50505050565b610941610bba565b6001600160a01b0381166109975760405162461bcd60e51b815260206004820152601860248201527f5a65726f2061646472657373206e6f7420616c6c6f77656400000000000000006044820152606401610293565b6001600160a01b03811660009081526004602052604090205460ff1615610a005760405162461bcd60e51b815260206004820152601760248201527f546f6b656e20616c726561647920737570706f727465640000000000000000006044820152606401610293565b6001600160a01b038116600081815260046020526040808220805460ff19166001179055517f784c8f4dbf0ffedd6e72c76501c545a70f8b203b30a26ce542bf92ba87c248a49190a250565b610a54610bba565b6105566000610d05565b610a66610bba565b6001600160a01b03811660009081526004602052604090205460ff16610ac45760405162461bcd60e51b8152602060048201526013602482015272151bdad95b881b9bdd081cdd5c1c1bdc9d1959606a1b6044820152606401610293565b6001600160a01b038116600081815260046020526040808220805460ff19169055517f4c910b69fe65a61f7531b9c5042b2329ca7179c77290aa7e2eb3afa3c8511fd39190a250565b610b15610bba565b610556610d55565b610b25610bba565b6001600160a01b038116610b8a5760405162461bcd60e51b815260206004820152602660248201527f4f776e61626c653a206e6577206f776e657220697320746865207a65726f206160448201526564647265737360d01b6064820152608401610293565b610b9381610d05565b50565b6000806000610ba58585610d92565b91509150610bb281610dd7565b509392505050565b6000546001600160a01b031633146105565760405162461bcd60e51b815260206004820181905260248201527f4f776e61626c653a2063616c6c6572206973206e6f7420746865206f776e65726044820152606401610293565b610c1c610f21565b6002805460ff191690557f5db9ee0a495bf2e6ff9c91a7834c1ba4fdd244a5e8aa4e537bd38aeae4b073aa335b6040516001600160a01b03909116815260200160405180910390a1565b600260015403610cb85760405162461bcd60e51b815260206004820152601f60248201527f5265656e7472616e637947756172643a207265656e7472616e742063616c6c006044820152606401610293565b6002600155565b60025460ff16156105565760405162461bcd60e51b815260206004820152601060248201526f14185d5cd8589b194e881c185d5cd95960821b6044820152606401610293565b600080546001600160a01b038381166001600160a01b0319831681178455604051919092169283917f8be0079c531659141344cd1fd0a4f28419497f9722a3daafe3b4186f6b6457e09190a35050565b610d5d610cbf565b6002805460ff191660011790557f62e78cea01bee320cd4e420270b5ea74000d11b0c9f74754ebdbfc544b05a258610c493390565b6000808251604103610dc85760208301516040840151606085015160001a610dbc87828585610f6a565b94509450505050610dd0565b506000905060025b9250929050565b6000816004811115610deb57610deb6113aa565b03610df35750565b6001816004811115610e0757610e076113aa565b03610e545760405162461bcd60e51b815260206004820152601860248201527f45434453413a20696e76616c6964207369676e617475726500000000000000006044820152606401610293565b6002816004811115610e6857610e686113aa565b03610eb55760405162461bcd60e51b815260206004820152601f60248201527f45434453413a20696e76616c6964207369676e6174757265206c656e677468006044820152606401610293565b6003816004811115610ec957610ec96113aa565b03610b935760405162461bcd60e51b815260206004820152602260248201527f45434453413a20696e76616c6964207369676e6174757265202773272076616c604482015261756560f01b6064820152608401610293565b60025460ff166105565760405162461bcd60e51b815260206004820152601460248201527314185d5cd8589b194e881b9bdd081c185d5cd95960621b6044820152606401610293565b6000807f7fffffffffffffffffffffffffffffff5d576e7357a4501ddfe92f46681b20a0831115610fa15750600090506003611025565b6040805160008082526020820180845289905260ff881692820192909252606081018690526080810185905260019060a0016020604051602081039080840390855afa158015610ff5573d6000803e3d6000fd5b5050604051601f1901519150506001600160a01b03811661101e57600060019250925050611025565b9150600090505b94509492505050565b634e487b7160e01b600052604160045260246000fd5b60405160e0810167ffffffffffffffff811182821017156110675761106761102e565b60405290565b80356001600160a01b038116811461108457600080fd5b919050565b600082601f83011261109a57600080fd5b813567ffffffffffffffff808211156110b5576110b561102e565b604051601f8301601f19908116603f011681019082821181831017156110dd576110dd61102e565b816040528381528660208588010111156110f657600080fd5b836020870160208301376000602085830101528094505050505092915050565b600060e0828403121561112857600080fd5b611130611044565b905061113b8261106d565b81526111496020830161106d565b602082015260408201356040820152606082013560608201526080820135608082015260a082013567ffffffffffffffff81111561118657600080fd5b61119284828501611089565b60a08301525060c082013560c082015292915050565b600080604083850312156111bb57600080fd5b823567ffffffffffffffff808211156111d357600080fd5b6111df86838701611116565b935060208501359150808211156111f557600080fd5b5061120285828601611089565b9150509250929050565b60006020828403121561121e57600080fd5b5035919050565b60006020828403121561123757600080fd5b6112408261106d565b9392505050565b6000806000806080858703121561125d57600080fd5b843567ffffffffffffffff8082111561127557600080fd5b61128188838901611116565b9550602087013591508082111561129757600080fd5b506112a487828801611089565b9350506112b36040860161106d565b9396929550929360600135925050565b60005b838110156112de5781810151838201526020016112c6565b50506000910152565b600060018060a01b03808a16835280891660208401525086604083015285606083015284608083015260e060a083015283518060e084015261010061133282828601602089016112c3565b60c0840194909452601f01601f191691909101909101979650505050505050565b60006020828403121561136557600080fd5b5051919050565b60006020828403121561137e57600080fd5b8151801515811461124057600080fd5b600082516113a08184602087016112c3565b9190910192915050565b634e487b7160e01b600052602160045260246000fdfea2646970667358221220461e0ed88aae1a4bd0e1c275301c2e62227ea86af16f30439273f3f1194a8de364736f6c63430008130033",
  "immutableReferences": {},
  "source": "// SPDX-License-Identifier: MIT\npragma solidity ^0.8.19;\n\nimport \"@openzeppelin/contracts/utils/cryptography/ECDSA.sol\";\nimport \"@openzeppelin/contracts/access/Ownable.sol\";\nimport \"@openzeppelin/contracts/security/ReentrancyGuard.sol\";\nimport \"@openzeppelin/contracts/security/Pausable.sol\";\n\ncontract GaslessForwarder is Ownable, ReentrancyGuard, Pausable {\n    using ECDSA for bytes32;\n\n    mapping(address => uint256) private _nonces;\n    mapping(address => bool) public supportedFeeTokens;\n    uint256 public maxGasLimit = 500000;\n    uint256 public feeMultiplier = 110; // 1.1x in basis points\n\n    struct MetaTx {\n        address from;\n        address to;\n        uint256 value;\n        uint256 gas;\n        uint256 nonce;\n        bytes data;\n        uint256 deadline;\n    }\n\n    event TokenAdded(address indexed token);\n    event TokenRemoved(address indexed token);\n    event TransactionExecuted(\n        address indexed from,\n        address indexed to,\n        uint256 nonce,  \n        address feeToken,\n        uint256 feeAmount\n    );\n    event MaxGasLimitUpdated(uint256 oldLimit, uint256 newLimit);\n    event FeeMultiplierUpdated(uint256 oldMultiplier, uint256 newMultiplier);\n\n    constructor() {\n        // BSC Testnet token addresses\n        supportedFeeTokens[0xA2C7CaEf4aA9a3da0eaEd89C70Efff1b8818A156] = true; // USDT\n        supportedFeeTokens[0xd9BfD73FE6B7481fF056Bf31239c2c4F019c0542] = true; // USDC\n    }\n\n    function addSupportedToken(address token) external onlyOwner {\n        require(token != address(0), \"Zero address not allowed\");\n        require(!supportedFeeTokens[token], \"Token already supported\");\n        supportedFeeTokens[token] = true;\n        emit TokenAdded(token);\n    }\n\n    function removeSupportedToken(address token) external onlyOwner {\n        require(supportedFeeTokens[token], \"Token not supported\");\n        supportedFeeTokens[token] = false;\n        emit TokenRemoved(token);\n    }\n\n    function verify(MetaTx memory tx, bytes memory signature) public view returns (bool) {\n        require(block.timestamp <= tx.deadline, \"Transaction expired\");\n        require(tx.from != address(0), \"Invalid sender address\");\n        require(tx.to != address(0), \"Invalid target address\");\n        \n        bytes32 hash = keccak256(abi.encode(\n            tx.from,\n            tx.to,\n            tx.value,\n            tx.gas,\n            tx.nonce,\n            tx.data,\n            tx.deadline\n        )).toEthSignedMessageHash();\n        \n        return hash.recover(signature) == tx.from && _nonces[tx.from] == tx.nonce;\n    }\n\n    function execute(\n        MetaTx memory tx,\n        bytes memory signature,\n        address feeToken,\n        uint256 feeAmount\n    ) external nonReentrant whenNotPaused {\n        // Input validation\n        require(supportedFeeTokens[feeToken], \"Unsupported token\");\n        require(tx.gas <= maxGasLimit, \"Gas limit too high\");\n        require(tx.to.code.length > 0, \"Target must be a contract\");\n        require(verify(tx, signature), \"Invalid signature\");\n        \n        // Check token allowance\n        require(\n            IERC20(feeToken).allowance(tx.from, address(this)) >= feeAmount,\n            \"Insufficient token allowance\"\n        );\n\n        // Transfer fee first (checks-effects-interactions pattern)\n        IERC20(feeToken).transferFrom(tx.from, msg.sender, feeAmount);\n\n        // Increment nonce\n        unchecked {\n            _nonces[tx.from]++;\n        }\n\n        // Execute the transaction\n        (bool success, ) = tx.to.call{value: tx.value, gas: tx.gas}(tx.data);\n        require(success, \"Execution failed\");\n\n        emit TransactionExecuted(tx.from, tx.to, tx.nonce, feeToken, feeAmount);\n    }\n\n    function setMaxGasLimit(uint256 newLimit) external onlyOwner {\n        require(newLimit > 0, \"Gas limit must be positive\");\n        uint256 oldLimit = maxGasLimit;\n        maxGasLimit = newLimit;\n        emit MaxGasLimitUpdated(oldLimit, newLimit);\n    }\n\n    function setFeeMultiplier(uint256 newMultiplier) external onlyOwner {\n        require(newMultiplier >= 100, \"Fee multiplier too low\");\n        uint256 oldMultiplier = feeMultiplier;\n        feeMultiplier = newMultiplier;\n        emit FeeMultiplierUpdated(oldMultiplier, newMultiplier);\n    }\n\n    function pause() external onlyOwner {\n        _pause();\n    }\n\n    function unpause() external onlyOwner {\n        _unpause();\n    }\n\n    function getNonce(address from) external view returns (uint256) {\n        return _nonces[from];\n    }\n}\n\ninterface IERC20 {\n    function transferFrom(address, address, uint256) external returns (bool);\n    function allowance(address, address) external view returns (uint256);\n}",
  "sourcePath": "/home/ved-mohan/Desktop/core-gasless/contracts/GaslessForwarder.sol",
  "compiler": {
    "name": "solc",
    "version": "0.8.19+commit.7dd6d404.Emscripten.clang"
  },
  "schemaVersion": "3.4.16",
  "updatedAt": "2025-05-12T11:03:43.544Z",
  "networkType": "ethereum",
  "devdoc": {
    "events": {
      "Paused(address)": {
        "details": "Emitted when the pause is triggered by `account`."
      },
      "Unpaused(address)": {
        "details": "Emitted when the pause is lifted by `account`."
      }
    },
    "kind": "dev",
    "methods": {
      "owner()": {
        "details": "Returns the address of the current owner."
      },
      "paused()": {
        "details": "Returns true if the contract is paused, and false otherwise."
      },
      "renounceOwnership()": {
        "details": "Leaves the contract without owner. It will not be possible to call `onlyOwner` functions. Can only be called by the current owner. NOTE: Renouncing ownership will leave the contract without an owner, thereby disabling any functionality that is only available to the owner."
      },
      "transferOwnership(address)": {
        "details": "Transfers ownership of the contract to a new account (`newOwner`). Can only be called by the current owner."
      }
    },
    "version": 1
  },
  "userdoc": {
    "kind": "user",
    "methods": {},
    "version": 1
  }
}