{
  "contractName": "MockContract",
  "abi": [
    {
      "anonymous": false,
      "inputs": [
        {
          "indexed": false,
          "internalType": "address",
          "name": "caller",
          "type": "address"
        }
      ],
      "name": "TestFunctionCalled",
      "type": "event"
    },
    {
      "inputs": [],
      "name": "testFunction",
      "outputs": [],
      "stateMutability": "nonpayable",
      "type": "function"
    }
  ],
  "bytecode": "0x6080604052348015600f57600080fd5b5060a08061001e6000396000f3fe6080604052348015600f57600080fd5b506004361060285760003560e01c8063e16b4a9b14602d575b600080fd5b60336035565b005b6040513381527f7fff0776526a36474f75bc6fdacd9a42517478c906443e5ebe06e7fc0956b4579060200160405180910390a156fea2646970667358221220ee9ce13b36358bc27eb648040f0d500d0e62fd9e5c17136907ce7b1b673c4b9164736f6c63430008130033",
  "immutableReferences": {},
  "source": "// SPDX-License-Identifier: MIT\npragma solidity ^0.8.19;\n\ncontract MockContract {\n    event TestFunctionCalled(address caller);\n\n    function testFunction() external {\n        emit TestFunctionCalled(msg.sender);\n    }\n}",
  "sourcePath": "/home/ved-mohan/Desktop/core-gasless/contracts/MockContract.sol",
  "compiler": {
    "name": "solc",
    "version": "0.8.19+commit.7dd6d404.Emscripten.clang"
  },
  "schemaVersion": "3.4.16",
  "updatedAt": "2025-05-12T11:00:49.763Z",
  "devdoc": {
    "kind": "dev",
    "methods": {},
    "version": 1
  },
  "userdoc": {
    "kind": "user",
    "methods": {},
    "version": 1
  }
}